{
  "transactions": [
    {
      "hash": "0xe5c567cb533ab92844f36fd2c29c4acc598560cc37f229c4e924d681f61a7a9a",
      "transactionType": "CALL",
      "contractName": null,
      "contractAddress": "0x3814f5cf6c4aa63eddf8a79c82346a163c7e7c53",
      "function": "approve(address,uint256)",
      "arguments": [
        "0x1938C3345f2B6B2Fa3538713DB50f80ebA3a61d5",
        "10000000000000000000000"
      ],
      "transaction": {
        "from": "0xe416db11fb2568434e7a86f33762e37cacd48469",
        "to": "0x3814f5cf6c4aa63eddf8a79c82346a163c7e7c53",
        "gas": "0xf816",
        "value": "0x0",
        "input": "0x095ea7b30000000000000000000000001938c3345f2b6b2fa3538713db50f80eba3a61d500000000000000000000000000000000000000000000021e19e0c9bab2400000",
        "nonce": "0x10b",
        "chainId": "0x128"
      },
      "additionalContracts": [],
      "isFixedGasLimit": false
    },
    {
      "hash": "0x814ca9b9ff86bc64b8bd2a6995c773f8fce639819333f31ce9a2ca6c46318896",
      "transactionType": "CALL",
      "contractName": null,
      "contractAddress": "0x1938c3345f2b6b2fa3538713db50f80eba3a61d5",
      "function": "addTokenLiquidity(address,uint256)",
      "arguments": [
        "0x3814F5Cf6c4Aa63EdDF8A79c82346a163c7E7C53",
        "10000000000000000000000"
      ],
      "transaction": {
        "from": "0xe416db11fb2568434e7a86f33762e37cacd48469",
        "to": "0x1938c3345f2b6b2fa3538713db50f80eba3a61d5",
        "gas": "0xefbb",
        "value": "0x0",
        "input": "0x14fe72aa0000000000000000000000003814f5cf6c4aa63eddf8a79c82346a163c7e7c5300000000000000000000000000000000000000000000021e19e0c9bab2400000",
        "nonce": "0x10c",
        "chainId": "0x128"
      },
      "additionalContracts": [],
      "isFixedGasLimit": false
    }
  ],
  "receipts": [
    {
      "status": "0x1",
      "cumulativeGasUsed": "0x1612d",
      "logs": [
        {
          "address": "0x3814f5cf6c4aa63eddf8a79c82346a163c7e7c53",
          "topics": [
            "0x8c5be1e5ebec7d5bd14f71427d1e84f3dd0314c0f7b2291e5b200ac8c7c3b925",
            "0x000000000000000000000000e416db11fb2568434e7a86f33762e37cacd48469",
            "0x0000000000000000000000001938c3345f2b6b2fa3538713db50f80eba3a61d5"
          ],
          "data": "0x00000000000000000000000000000000000000000000021e19e0c9bab2400000",
          "blockHash": "0x270c765ccd1f23cea5e7e85f53a4bbf3289180bafba0a32bf9f5ca0e5fd043d0",
          "blockNumber": "0x199a0ef",
          "blockTimestamp": "0x6901f99e",
          "transactionHash": "0xe5c567cb533ab92844f36fd2c29c4acc598560cc37f229c4e924d681f61a7a9a",
          "transactionIndex": "0x4",
          "logIndex": "0x0",
          "removed": false
        }
      ],
      "logsBloom": "0x00000000000000000000000000000004000000000000020000000000000000000000000000008000000000000200000000000000000000000000000000200000000000000000000000000000000000000000000000000000000000000000000000000000000000000000000000020000000000000000000000000000000000000000000000000000000000000000000000000000000000000000000400000000020000000000400000000000002000000000000000000000000000000000000000000000000000000000000000000000100000000000000000000000000000000010000000000000000000000000000000000000000000000000000000000000",
      "type": "0x2",
      "transactionHash": "0xe5c567cb533ab92844f36fd2c29c4acc598560cc37f229c4e924d681f61a7a9a",
      "transactionIndex": "0x4",
      "blockHash": "0x270c765ccd1f23cea5e7e85f53a4bbf3289180bafba0a32bf9f5ca0e5fd043d0",
      "blockNumber": "0x199a0ef",
      "gasUsed": "0xb39d",
      "effectiveGasPrice": "0x641dff4c00",
      "from": "0xe416db11fb2568434e7a86f33762e37cacd48469",
      "to": "0x3814f5cf6c4aa63eddf8a79c82346a163c7e7c53",
      "contractAddress": "0x3814f5cf6c4aa63eddf8a79c82346a163c7e7c53",
      "root": "0x56e81f171bcc55a6ff8345e692c0f86e5b48e01b996cadc001622fb5e363b421"
    },
    {
      "status": "0x1",
      "cumulativeGasUsed": "0x1612d",
      "logs": [
        {
          "address": "0x3814f5cf6c4aa63eddf8a79c82346a163c7e7c53",
          "topics": [
            "0xddf252ad1be2c89b69c2b068fc378daa952ba7f163c4a11628f55a4df523b3ef",
            "0x000000000000000000000000e416db11fb2568434e7a86f33762e37cacd48469",
            "0x0000000000000000000000001938c3345f2b6b2fa3538713db50f80eba3a61d5"
          ],
          "data": "0x00000000000000000000000000000000000000000000021e19e0c9bab2400000",
          "blockHash": "0x270c765ccd1f23cea5e7e85f53a4bbf3289180bafba0a32bf9f5ca0e5fd043d0",
          "blockNumber": "0x199a0ef",
          "blockTimestamp": "0x6901f99f",
          "transactionHash": "0x814ca9b9ff86bc64b8bd2a6995c773f8fce639819333f31ce9a2ca6c46318896",
          "transactionIndex": "0xb",
          "logIndex": "0x1",
          "removed": false
        },
        {
          "address": "0x1938c3345f2b6b2fa3538713db50f80eba3a61d5",
          "topics": [
            "0xf1444b5cad7ce70cb018d1b8edc8618fe303f3c7f034d8d572a6e27facbf2bef",
            "0x0000000000000000000000000000000000000000000000000000000000000000",
            "0x0000000000000000000000003814f5cf6c4aa63eddf8a79c82346a163c7e7c53"
          ],
          "data": "0x00000000000000000000000000000000000000000000021e19e0c9bab2400000",
          "blockHash": "0x270c765ccd1f23cea5e7e85f53a4bbf3289180bafba0a32bf9f5ca0e5fd043d0",
          "blockNumber": "0x199a0ef",
          "blockTimestamp": "0x6901f99f",
          "transactionHash": "0x814ca9b9ff86bc64b8bd2a6995c773f8fce639819333f31ce9a2ca6c46318896",
          "transactionIndex": "0xb",
          "logIndex": "0x2",
          "removed": false
        }
      ],
      "logsBloom": "0x00000000000000000002000000000004000000000000021000000000000000000000000000008000000000000200200000000000000000000000000000000000000000000000000000000008000000000000000000000000000000000000020000000000020000000000000000020800000000000000000000000010000000000000000000000000000000000000000000000000000000000000000400000000000000000000400000200000002000000000000000000000000000000000000000000002000000000040000000000000100000000000000000800400000020000000000000000000000040000000000000000000000000000000000000000000",
      "type": "0x2",
      "transactionHash": "0x814ca9b9ff86bc64b8bd2a6995c773f8fce639819333f31ce9a2ca6c46318896",
      "transactionIndex": "0xb",
      "blockHash": "0x270c765ccd1f23cea5e7e85f53a4bbf3289180bafba0a32bf9f5ca0e5fd043d0",
      "blockNumber": "0x199a0ef",
      "gasUsed": "0xad90",
      "effectiveGasPrice": "0x641dff4c00",
      "from": "0xe416db11fb2568434e7a86f33762e37cacd48469",
      "to": "0x1938c3345f2b6b2fa3538713db50f80eba3a61d5",
      "contractAddress": "0x1938c3345f2b6b2fa3538713db50f80eba3a61d5",
      "root": "0x56e81f171bcc55a6ff8345e692c0f86e5b48e01b996cadc001622fb5e363b421"
    }
  ],
  "libraries": [],
  "pending": [],
  "returns": {},
  "timestamp": 1761737123,
  "chain": 296,
  "commit": "41086f7"
}