{
  "transactions": [
    {
      "hash": "0x27d6493fa1b486201fa1fcb74f0f14c2a3f86c5e8ed206bacbe3b3e7c3ecfbc1",
      "transactionType": "CALL",
      "contractName": null,
      "contractAddress": "0x125d3f690f281659dd7708d21688bc83ee534ae6",
      "function": "approve(address,uint256)",
      "arguments": [
        "0x1938C3345f2B6B2Fa3538713DB50f80ebA3a61d5",
        "10000000000000000000000"
      ],
      "transaction": {
        "from": "0xe416db11fb2568434e7a86f33762e37cacd48469",
        "to": "0x125d3f690f281659dd7708d21688bc83ee534ae6",
        "gas": "0xf816",
        "value": "0x0",
        "input": "0x095ea7b30000000000000000000000001938c3345f2b6b2fa3538713db50f80eba3a61d500000000000000000000000000000000000000000000021e19e0c9bab2400000",
        "nonce": "0x102",
        "chainId": "0x128"
      },
      "additionalContracts": [],
      "isFixedGasLimit": false
    },
    {
      "hash": "0x725872f1ef11b19f1c426fb0403d8526671d10c3072b3bea74db1a0422baac5f",
      "transactionType": "CALL",
      "contractName": null,
      "contractAddress": "0x1938c3345f2b6b2fa3538713db50f80eba3a61d5",
      "function": "addTokenLiquidity(address,uint256)",
      "arguments": [
        "0x125D3f690f281659Dd7708D21688BC83Ee534aE6",
        "10000000000000000000000"
      ],
      "transaction": {
        "from": "0xe416db11fb2568434e7a86f33762e37cacd48469",
        "to": "0x1938c3345f2b6b2fa3538713db50f80eba3a61d5",
        "gas": "0x14bfe",
        "value": "0x0",
        "input": "0x14fe72aa000000000000000000000000125d3f690f281659dd7708d21688bc83ee534ae600000000000000000000000000000000000000000000021e19e0c9bab2400000",
        "nonce": "0x103",
        "chainId": "0x128"
      },
      "additionalContracts": [],
      "isFixedGasLimit": false
    },
    {
      "hash": "0x8328b76957a2d99565235c2c539d5c631d53bd3262c9daff6844f0d625525d96",
      "transactionType": "CALL",
      "contractName": null,
      "contractAddress": "0xd4e61131ed9c3dd610727655ae8254b286dee95c",
      "function": "approve(address,uint256)",
      "arguments": [
        "0x1938C3345f2B6B2Fa3538713DB50f80ebA3a61d5",
        "10000000000000000000000"
      ],
      "transaction": {
        "from": "0xe416db11fb2568434e7a86f33762e37cacd48469",
        "to": "0xd4e61131ed9c3dd610727655ae8254b286dee95c",
        "gas": "0xf816",
        "value": "0x0",
        "input": "0x095ea7b30000000000000000000000001938c3345f2b6b2fa3538713db50f80eba3a61d500000000000000000000000000000000000000000000021e19e0c9bab2400000",
        "nonce": "0x104",
        "chainId": "0x128"
      },
      "additionalContracts": [],
      "isFixedGasLimit": false
    },
    {
      "hash": "0x3bccec064f7a42bb24947d87af2b12cf2285f12a8059f6533e2bab4e84220e8c",
      "transactionType": "CALL",
      "contractName": null,
      "contractAddress": "0x1938c3345f2b6b2fa3538713db50f80eba3a61d5",
      "function": "addTokenLiquidity(address,uint256)",
      "arguments": [
        "0xd4E61131Ed9C3dd610727655aE8254B286deE95c",
        "10000000000000000000000"
      ],
      "transaction": {
        "from": "0xe416db11fb2568434e7a86f33762e37cacd48469",
        "to": "0x1938c3345f2b6b2fa3538713db50f80eba3a61d5",
        "gas": "0x14bfe",
        "value": "0x0",
        "input": "0x14fe72aa000000000000000000000000d4e61131ed9c3dd610727655ae8254b286dee95c00000000000000000000000000000000000000000000021e19e0c9bab2400000",
        "nonce": "0x105",
        "chainId": "0x128"
      },
      "additionalContracts": [],
      "isFixedGasLimit": false
    },
    {
      "hash": "0x4c75547427acec5ab57520dcfe226ecc9bf6c80e1e4a02a954e09a3f1cd3060a",
      "transactionType": "CALL",
      "contractName": null,
      "contractAddress": "0x3814f5cf6c4aa63eddf8a79c82346a163c7e7c53",
      "function": "approve(address,uint256)",
      "arguments": [
        "0x1938C3345f2B6B2Fa3538713DB50f80ebA3a61d5",
        "10000000000000000000000"
      ],
      "transaction": {
        "from": "0xe416db11fb2568434e7a86f33762e37cacd48469",
        "to": "0x3814f5cf6c4aa63eddf8a79c82346a163c7e7c53",
        "gas": "0xf816",
        "value": "0x0",
        "input": "0x095ea7b30000000000000000000000001938c3345f2b6b2fa3538713db50f80eba3a61d500000000000000000000000000000000000000000000021e19e0c9bab2400000",
        "nonce": "0x106",
        "chainId": "0x128"
      },
      "additionalContracts": [],
      "isFixedGasLimit": false
    },
    {
      "hash": "0x4ce8fa79f41d70a3fdcad338cd221eac2ed131790e65c25e00fb16daa5e391b5",
      "transactionType": "CALL",
      "contractName": null,
      "contractAddress": "0x1938c3345f2b6b2fa3538713db50f80eba3a61d5",
      "function": "addTokenLiquidity(address,uint256)",
      "arguments": [
        "0x3814F5Cf6c4Aa63EdDF8A79c82346a163c7E7C53",
        "10000000000000000000000"
      ],
      "transaction": {
        "from": "0xe416db11fb2568434e7a86f33762e37cacd48469",
        "to": "0x1938c3345f2b6b2fa3538713db50f80eba3a61d5",
        "gas": "0x14bfe",
        "value": "0x0",
        "input": "0x14fe72aa0000000000000000000000003814f5cf6c4aa63eddf8a79c82346a163c7e7c5300000000000000000000000000000000000000000000021e19e0c9bab2400000",
        "nonce": "0x107",
        "chainId": "0x128"
      },
      "additionalContracts": [],
      "isFixedGasLimit": false
    },
    {
      "hash": "0x5d916b9a17cd5955b158a4dcd50a87bb06dc1582280cbda46e1dfefb4a9bc651",
      "transactionType": "CALL",
      "contractName": null,
      "contractAddress": "0x1938c3345f2b6b2fa3538713db50f80eba3a61d5",
      "function": "addHbarLiquidity()",
      "arguments": [],
      "transaction": {
        "from": "0xe416db11fb2568434e7a86f33762e37cacd48469",
        "to": "0x1938c3345f2b6b2fa3538713db50f80eba3a61d5",
        "gas": "0x9b21",
        "value": "0x174876e800",
        "input": "0x114120e6",
        "nonce": "0x108",
        "chainId": "0x128"
      },
      "additionalContracts": [],
      "isFixedGasLimit": false
    }
  ],
  "receipts": [
    {
      "status": "0x1",
      "cumulativeGasUsed": "0x70f9d",
      "logs": [
        {
          "address": "0x125d3f690f281659dd7708d21688bc83ee534ae6",
          "topics": [
            "0x8c5be1e5ebec7d5bd14f71427d1e84f3dd0314c0f7b2291e5b200ac8c7c3b925",
            "0x000000000000000000000000e416db11fb2568434e7a86f33762e37cacd48469",
            "0x0000000000000000000000001938c3345f2b6b2fa3538713db50f80eba3a61d5"
          ],
          "data": "0x00000000000000000000000000000000000000000000021e19e0c9bab2400000",
          "blockHash": "0x9f0804b4aad734f161a34568afc0f231205255aac90d8cbf1d6c9004ffe1d4c3",
          "blockNumber": "0x199a017",
          "blockTimestamp": "0x6901f7ee",
          "transactionHash": "0x27d6493fa1b486201fa1fcb74f0f14c2a3f86c5e8ed206bacbe3b3e7c3ecfbc1",
          "transactionIndex": "0x2",
          "logIndex": "0x0",
          "removed": false
        }
      ],
      "logsBloom": "0x00000000000000000000000000000004000000000000000000000000000010000000000000008000000000000200000000000000000000000000000000200000000000000000000000000000000000000000000000800000000000000000000000000000000000000000000000000000000000000000000000000000000000000000000000000000000000000000000000000000000000000000000001000000020000000000400000000000002000000000000000000000000000000000000000000000000000000000000000000000100000000000000000000000000000000010000000000000000000000000000000000000000000000000000000000000",
      "type": "0x2",
      "transactionHash": "0x27d6493fa1b486201fa1fcb74f0f14c2a3f86c5e8ed206bacbe3b3e7c3ecfbc1",
      "transactionIndex": "0x2",
      "blockHash": "0x9f0804b4aad734f161a34568afc0f231205255aac90d8cbf1d6c9004ffe1d4c3",
      "blockNumber": "0x199a017",
      "gasUsed": "0xb39d",
      "effectiveGasPrice": "0x641dff4c00",
      "from": "0xe416db11fb2568434e7a86f33762e37cacd48469",
      "to": "0x125d3f690f281659dd7708d21688bc83ee534ae6",
      "contractAddress": "0x125d3f690f281659dd7708d21688bc83ee534ae6",
      "root": "0x56e81f171bcc55a6ff8345e692c0f86e5b48e01b996cadc001622fb5e363b421"
    },
    {
      "status": "0x1",
      "cumulativeGasUsed": "0x70f9d",
      "logs": [
        {
          "address": "0x125d3f690f281659dd7708d21688bc83ee534ae6",
          "topics": [
            "0xddf252ad1be2c89b69c2b068fc378daa952ba7f163c4a11628f55a4df523b3ef",
            "0x000000000000000000000000e416db11fb2568434e7a86f33762e37cacd48469",
            "0x0000000000000000000000001938c3345f2b6b2fa3538713db50f80eba3a61d5"
          ],
          "data": "0x00000000000000000000000000000000000000000000021e19e0c9bab2400000",
          "blockHash": "0x9f0804b4aad734f161a34568afc0f231205255aac90d8cbf1d6c9004ffe1d4c3",
          "blockNumber": "0x199a017",
          "blockTimestamp": "0x6901f7ef",
          "transactionHash": "0x725872f1ef11b19f1c426fb0403d8526671d10c3072b3bea74db1a0422baac5f",
          "transactionIndex": "0xc",
          "logIndex": "0x2",
          "removed": false
        },
        {
          "address": "0x1938c3345f2b6b2fa3538713db50f80eba3a61d5",
          "topics": [
            "0xf1444b5cad7ce70cb018d1b8edc8618fe303f3c7f034d8d572a6e27facbf2bef",
            "0x0000000000000000000000000000000000000000000000000000000000000000",
            "0x000000000000000000000000125d3f690f281659dd7708d21688bc83ee534ae6"
          ],
          "data": "0x00000000000000000000000000000000000000000000021e19e0c9bab2400000",
          "blockHash": "0x9f0804b4aad734f161a34568afc0f231205255aac90d8cbf1d6c9004ffe1d4c3",
          "blockNumber": "0x199a017",
          "blockTimestamp": "0x6901f7ef",
          "transactionHash": "0x725872f1ef11b19f1c426fb0403d8526671d10c3072b3bea74db1a0422baac5f",
          "transactionIndex": "0xc",
          "logIndex": "0x3",
          "removed": false
        }
      ],
      "logsBloom": "0x00000000000000000200000000000004000000000000000000000000000010000000000000008000000000000200200000000000000000000000000000000000000000000000000000000008000000000000000000800000000000000000000000000004020000000000000000000800000000000000000000000010000000000000000001000000000000000000000000000000000000000000000001000000000000000000400000200000002000000000000000000000000000000000000000000002000000000040000000000000100000000000000000800400000020000000000000000000000040000000000000000000000000000000000000000000",
      "type": "0x2",
      "transactionHash": "0x725872f1ef11b19f1c426fb0403d8526671d10c3072b3bea74db1a0422baac5f",
      "transactionIndex": "0xc",
      "blockHash": "0x9f0804b4aad734f161a34568afc0f231205255aac90d8cbf1d6c9004ffe1d4c3",
      "blockNumber": "0x199a017",
      "gasUsed": "0xf05c",
      "effectiveGasPrice": "0x641dff4c00",
      "from": "0xe416db11fb2568434e7a86f33762e37cacd48469",
      "to": "0x1938c3345f2b6b2fa3538713db50f80eba3a61d5",
      "contractAddress": "0x1938c3345f2b6b2fa3538713db50f80eba3a61d5",
      "root": "0x56e81f171bcc55a6ff8345e692c0f86e5b48e01b996cadc001622fb5e363b421"
    },
    {
      "status": "0x1",
      "cumulativeGasUsed": "0x70f9d",
      "logs": [
        {
          "address": "0xd4e61131ed9c3dd610727655ae8254b286dee95c",
          "topics": [
            "0x8c5be1e5ebec7d5bd14f71427d1e84f3dd0314c0f7b2291e5b200ac8c7c3b925",
            "0x000000000000000000000000e416db11fb2568434e7a86f33762e37cacd48469",
            "0x0000000000000000000000001938c3345f2b6b2fa3538713db50f80eba3a61d5"
          ],
          "data": "0x00000000000000000000000000000000000000000000021e19e0c9bab2400000",
          "blockHash": "0x9f0804b4aad734f161a34568afc0f231205255aac90d8cbf1d6c9004ffe1d4c3",
          "blockNumber": "0x199a017",
          "blockTimestamp": "0x6901f7ef",
          "transactionHash": "0x8328b76957a2d99565235c2c539d5c631d53bd3262c9daff6844f0d625525d96",
          "transactionIndex": "0x12",
          "logIndex": "0x4",
          "removed": false
        }
      ],
      "logsBloom": "0x00000000000000000000000000000004000000000000000000000000000000000000000000008000000000000200000000040000000000000000000000200000000000000000000000000000000000000000000000000000000000000000000000000000000000000008000000000000000000000000000000000000000000000000000000000000000000000000000000000000000000000000000000000000020000000000400000000000002000000000000000000000000000000000000000000000000000000000010000000000100000000000000000000000000000000010000000000000000000000000000000000000000000000000000000000000",
      "type": "0x2",
      "transactionHash": "0x8328b76957a2d99565235c2c539d5c631d53bd3262c9daff6844f0d625525d96",
      "transactionIndex": "0x12",
      "blockHash": "0x9f0804b4aad734f161a34568afc0f231205255aac90d8cbf1d6c9004ffe1d4c3",
      "blockNumber": "0x199a017",
      "gasUsed": "0xb39d",
      "effectiveGasPrice": "0x641dff4c00",
      "from": "0xe416db11fb2568434e7a86f33762e37cacd48469",
      "to": "0xd4e61131ed9c3dd610727655ae8254b286dee95c",
      "contractAddress": "0xd4e61131ed9c3dd610727655ae8254b286dee95c",
      "root": "0x56e81f171bcc55a6ff8345e692c0f86e5b48e01b996cadc001622fb5e363b421"
    }
  ],
  "libraries": [],
  "pending": [],
  "returns": {},
  "timestamp": 1761736809,
  "chain": 296,
  "commit": "41086f7"
}