{
  "transactions": [
    {
      "hash": "0x595935738c22430c42e79c2057bbe699d9083011ab6d339360144be7b1b4ca72",
      "transactionType": "CALL",
      "contractName": null,
      "contractAddress": "0xd4e61131ed9c3dd610727655ae8254b286dee95c",
      "function": "approve(address,uint256)",
      "arguments": [
        "0x1938C3345f2B6B2Fa3538713DB50f80ebA3a61d5",
        "10000000000000000000000"
      ],
      "transaction": {
        "from": "0xe416db11fb2568434e7a86f33762e37cacd48469",
        "to": "0xd4e61131ed9c3dd610727655ae8254b286dee95c",
        "gas": "0x94ff",
        "value": "0x0",
        "input": "0x095ea7b30000000000000000000000001938c3345f2b6b2fa3538713db50f80eba3a61d500000000000000000000000000000000000000000000021e19e0c9bab2400000",
        "nonce": "0x107",
        "chainId": "0x128"
      },
      "additionalContracts": [],
      "isFixedGasLimit": false
    },
    {
      "hash": "0xfbb49f6eed1f0e81dd0140456ac28445aa1efac5b133270deeb6424bc665db73",
      "transactionType": "CALL",
      "contractName": null,
      "contractAddress": "0x1938c3345f2b6b2fa3538713db50f80eba3a61d5",
      "function": "addTokenLiquidity(address,uint256)",
      "arguments": [
        "0xd4E61131Ed9C3dd610727655aE8254B286deE95c",
        "10000000000000000000000"
      ],
      "transaction": {
        "from": "0xe416db11fb2568434e7a86f33762e37cacd48469",
        "to": "0x1938c3345f2b6b2fa3538713db50f80eba3a61d5",
        "gas": "0x14bfe",
        "value": "0x0",
        "input": "0x14fe72aa000000000000000000000000d4e61131ed9c3dd610727655ae8254b286dee95c00000000000000000000000000000000000000000000021e19e0c9bab2400000",
        "nonce": "0x108",
        "chainId": "0x128"
      },
      "additionalContracts": [],
      "isFixedGasLimit": false
    }
  ],
  "receipts": [
    {
      "status": "0x1",
      "cumulativeGasUsed": "0x1563d",
      "logs": [
        {
          "address": "0xd4e61131ed9c3dd610727655ae8254b286dee95c",
          "topics": [
            "0x8c5be1e5ebec7d5bd14f71427d1e84f3dd0314c0f7b2291e5b200ac8c7c3b925",
            "0x000000000000000000000000e416db11fb2568434e7a86f33762e37cacd48469",
            "0x0000000000000000000000001938c3345f2b6b2fa3538713db50f80eba3a61d5"
          ],
          "data": "0x00000000000000000000000000000000000000000000021e19e0c9bab2400000",
          "blockHash": "0xb4bc29a4f7fb1ac19fd046667463a191463fab1265b3c558313ad0c6f9a895f9",
          "blockNumber": "0x199a0b1",
          "blockTimestamp": "0x6901f922",
          "transactionHash": "0x595935738c22430c42e79c2057bbe699d9083011ab6d339360144be7b1b4ca72",
          "transactionIndex": "0x0",
          "logIndex": "0x0",
          "removed": false
        }
      ],
      "logsBloom": "0x00000000000000000000000000000004000000000000000000000000000000000000000000008000000000000200000000040000000000000000000000200000000000000000000000000000000000000000000000000000000000000000000000000000000000000008000000000000000000000000000000000000000000000000000000000000000000000000000000000000000000000000000000000000020000000000400000000000002000000000000000000000000000000000000000000000000000000000010000000000100000000000000000000000000000000010000000000000000000000000000000000000000000000000000000000000",
      "type": "0x2",
      "transactionHash": "0x595935738c22430c42e79c2057bbe699d9083011ab6d339360144be7b1b4ca72",
      "transactionIndex": "0x0",
      "blockHash": "0xb4bc29a4f7fb1ac19fd046667463a191463fab1265b3c558313ad0c6f9a895f9",
      "blockNumber": "0x199a0b1",
      "gasUsed": "0x65e1",
      "effectiveGasPrice": "0x641dff4c00",
      "from": "0xe416db11fb2568434e7a86f33762e37cacd48469",
      "to": "0xd4e61131ed9c3dd610727655ae8254b286dee95c",
      "contractAddress": "0xd4e61131ed9c3dd610727655ae8254b286dee95c",
      "root": "0x56e81f171bcc55a6ff8345e692c0f86e5b48e01b996cadc001622fb5e363b421"
    },
    {
      "status": "0x1",
      "cumulativeGasUsed": "0x1563d",
      "logs": [
        {
          "address": "0xd4e61131ed9c3dd610727655ae8254b286dee95c",
          "topics": [
            "0xddf252ad1be2c89b69c2b068fc378daa952ba7f163c4a11628f55a4df523b3ef",
            "0x000000000000000000000000e416db11fb2568434e7a86f33762e37cacd48469",
            "0x0000000000000000000000001938c3345f2b6b2fa3538713db50f80eba3a61d5"
          ],
          "data": "0x00000000000000000000000000000000000000000000021e19e0c9bab2400000",
          "blockHash": "0xb4bc29a4f7fb1ac19fd046667463a191463fab1265b3c558313ad0c6f9a895f9",
          "blockNumber": "0x199a0b1",
          "blockTimestamp": "0x6901f922",
          "transactionHash": "0xfbb49f6eed1f0e81dd0140456ac28445aa1efac5b133270deeb6424bc665db73",
          "transactionIndex": "0x8",
          "logIndex": "0x1",
          "removed": false
        },
        {
          "address": "0x1938c3345f2b6b2fa3538713db50f80eba3a61d5",
          "topics": [
            "0xf1444b5cad7ce70cb018d1b8edc8618fe303f3c7f034d8d572a6e27facbf2bef",
            "0x0000000000000000000000000000000000000000000000000000000000000000",
            "0x000000000000000000000000d4e61131ed9c3dd610727655ae8254b286dee95c"
          ],
          "data": "0x00000000000000000000000000000000000000000000021e19e0c9bab2400000",
          "blockHash": "0xb4bc29a4f7fb1ac19fd046667463a191463fab1265b3c558313ad0c6f9a895f9",
          "blockNumber": "0x199a0b1",
          "blockTimestamp": "0x6901f922",
          "transactionHash": "0xfbb49f6eed1f0e81dd0140456ac28445aa1efac5b133270deeb6424bc665db73",
          "transactionIndex": "0x8",
          "logIndex": "0x2",
          "removed": false
        }
      ],
      "logsBloom": "0x00000000000000000000000000000004000000000000000000000000000000000000000000008000000000000200200000040000000000000000000000000000000000000000000000400008000000000000000000000000000000000000000000000000020000000008000000000800000000000000000080000010000000000000000000000000000000000000000000000000000000000000000000000000000000000000400000200000002000000000000000000000000000000000000000000002200000000040010000000000100000000000000000800400000020000000000000000000000040000000000000000000000000000000000000000000",
      "type": "0x2",
      "transactionHash": "0xfbb49f6eed1f0e81dd0140456ac28445aa1efac5b133270deeb6424bc665db73",
      "transactionIndex": "0x8",
      "blockHash": "0xb4bc29a4f7fb1ac19fd046667463a191463fab1265b3c558313ad0c6f9a895f9",
      "blockNumber": "0x199a0b1",
      "gasUsed": "0xf05c",
      "effectiveGasPrice": "0x641dff4c00",
      "from": "0xe416db11fb2568434e7a86f33762e37cacd48469",
      "to": "0x1938c3345f2b6b2fa3538713db50f80eba3a61d5",
      "contractAddress": "0x1938c3345f2b6b2fa3538713db50f80eba3a61d5",
      "root": "0x56e81f171bcc55a6ff8345e692c0f86e5b48e01b996cadc001622fb5e363b421"
    }
  ],
  "libraries": [],
  "pending": [],
  "returns": {},
  "timestamp": 1761736999,
  "chain": 296,
  "commit": "41086f7"
}