{
  "transactions": [
    {
      "hash": "0x937b4d3352e90d9f4a86212e023505645fe96614a5f1023e27ebb1702daf43f1",
      "transactionType": "CALL",
      "contractName": null,
      "contractAddress": "0x3814f5cf6c4aa63eddf8a79c82346a163c7e7c53",
      "function": "mint(address,uint256)",
      "arguments": [
        "0x00000000000000000000000000000000006D184c",
        "1000000000000000000000"
      ],
      "transaction": {
        "from": "0xe416db11fb2568434e7a86f33762e37cacd48469",
        "to": "0x3814f5cf6c4aa63eddf8a79c82346a163c7e7c53",
        "gas": "0x1121e",
        "value": "0x0",
        "input": "0x40c10f1900000000000000000000000000000000000000000000000000000000006d184c00000000000000000000000000000000000000000000003635c9adc5dea00000",
        "nonce": "0xf8",
        "chainId": "0x128"
      },
      "additionalContracts": [],
      "isFixedGasLimit": false
    }
  ],
  "receipts": [
    {
      "status": "0x1",
      "cumulativeGasUsed": "0x5fede",
      "logs": [
        {
          "address": "0x3814f5cf6c4aa63eddf8a79c82346a163c7e7c53",
          "topics": [
            "0xddf252ad1be2c89b69c2b068fc378daa952ba7f163c4a11628f55a4df523b3ef",
            "0x0000000000000000000000000000000000000000000000000000000000000000",
            "0x00000000000000000000000000000000000000000000000000000000006d184c"
          ],
          "data": "0x00000000000000000000000000000000000000000000003635c9adc5dea00000",
          "blockHash": "0xb30e3223d959b068ca44f93cdedb440d7c82cc81a78d6a250ab0a1cc1e4f028f",
          "blockNumber": "0x19914e3",
          "blockTimestamp": "0x6900e187",
          "transactionHash": "0x937b4d3352e90d9f4a86212e023505645fe96614a5f1023e27ebb1702daf43f1",
          "transactionIndex": "0x10",
          "logIndex": "0x4",
          "removed": false
        }
      ],
      "logsBloom": "0x00000000000000000000000020000000000000000000020000000000000000000000000000000000000000000000000000000000000000000008000000000000000000000000000000000008000000000000000000000000000000000000000000000000020000000000000000020800000000000000000000000010000000000000000000000000000000000000000000000000000000000000000400000000000000000000000000000000000000000000000000000000000000000000000000000002000000000400000000000000000000000000000000000000000020000000000000000000000000000000000000000000000000000000000000000000",
      "type": "0x0",
      "transactionHash": "0x937b4d3352e90d9f4a86212e023505645fe96614a5f1023e27ebb1702daf43f1",
      "transactionIndex": "0x10",
      "blockHash": "0xb30e3223d959b068ca44f93cdedb440d7c82cc81a78d6a250ab0a1cc1e4f028f",
      "blockNumber": "0x19914e3",
      "gasUsed": "0xc675",
      "effectiveGasPrice": "0x5d21dba000",
      "from": "0xe416db11fb2568434e7a86f33762e37cacd48469",
      "to": "0x3814f5cf6c4aa63eddf8a79c82346a163c7e7c53",
      "contractAddress": "0x3814f5cf6c4aa63eddf8a79c82346a163c7e7c53",
      "root": "0x56e81f171bcc55a6ff8345e692c0f86e5b48e01b996cadc001622fb5e363b421"
    }
  ],
  "libraries": [],
  "pending": [],
  "returns": {},
  "timestamp": 1761665419,
  "chain": 296,
  "commit": "efbc750"
}