{
  "transactions": [
    {
      "hash": "0x15af396f2f86b5d99d03957a5dc717447cffa0ceb1c87da0520b665f48f25c17",
      "transactionType": "CALL",
      "contractName": null,
      "contractAddress": "0xd4e61131ed9c3dd610727655ae8254b286dee95c",
      "function": "mint(address,uint256)",
      "arguments": [
        "0x00000000000000000000000000000000006D184c",
        "1000000000000000000000"
      ],
      "transaction": {
        "from": "0xe416db11fb2568434e7a86f33762e37cacd48469",
        "to": "0xd4e61131ed9c3dd610727655ae8254b286dee95c",
        "gas": "0x1121e",
        "value": "0x0",
        "input": "0x40c10f1900000000000000000000000000000000000000000000000000000000006d184c00000000000000000000000000000000000000000000003635c9adc5dea00000",
        "nonce": "0xf7",
        "chainId": "0x128"
      },
      "additionalContracts": [],
      "isFixedGasLimit": false
    }
  ],
  "receipts": [
    {
      "status": "0x1",
      "cumulativeGasUsed": "0xc675",
      "logs": [
        {
          "address": "0xd4e61131ed9c3dd610727655ae8254b286dee95c",
          "topics": [
            "0xddf252ad1be2c89b69c2b068fc378daa952ba7f163c4a11628f55a4df523b3ef",
            "0x0000000000000000000000000000000000000000000000000000000000000000",
            "0x00000000000000000000000000000000000000000000000000000000006d184c"
          ],
          "data": "0x00000000000000000000000000000000000000000000003635c9adc5dea00000",
          "blockHash": "0x52744519aed5e408ae43a3c5b951f42ad487e7faf2ad88654ef94f0590808955",
          "blockNumber": "0x19914d1",
          "blockTimestamp": "0x6900e162",
          "transactionHash": "0x15af396f2f86b5d99d03957a5dc717447cffa0ceb1c87da0520b665f48f25c17",
          "transactionIndex": "0x6",
          "logIndex": "0x0",
          "removed": false
        }
      ],
      "logsBloom": "0x00000000000000000000000020000000000000000000000000000000000000000000000000000000000000000000000000040000000000000008000000000000000000000000000000000008000000000000000000000000000000000000000000000000020000000008000000000800000000000000000000000010000000000000000000000000000000000000000000000000000000000000000000000000000000000000000000000000000000000000000000000000000000000000000000000002000000000400010000000000000000000000000000000000000020000000000000000000000000000000000000000000000000000000000000000000",
      "type": "0x0",
      "transactionHash": "0x15af396f2f86b5d99d03957a5dc717447cffa0ceb1c87da0520b665f48f25c17",
      "transactionIndex": "0x6",
      "blockHash": "0x52744519aed5e408ae43a3c5b951f42ad487e7faf2ad88654ef94f0590808955",
      "blockNumber": "0x19914d1",
      "gasUsed": "0xc675",
      "effectiveGasPrice": "0x5d21dba000",
      "from": "0xe416db11fb2568434e7a86f33762e37cacd48469",
      "to": "0xd4e61131ed9c3dd610727655ae8254b286dee95c",
      "contractAddress": "0xd4e61131ed9c3dd610727655ae8254b286dee95c",
      "root": "0x56e81f171bcc55a6ff8345e692c0f86e5b48e01b996cadc001622fb5e363b421"
    }
  ],
  "libraries": [],
  "pending": [],
  "returns": {},
  "timestamp": 1761665382,
  "chain": 296,
  "commit": "efbc750"
}