{
  "transactions": [
    {
      "hash": "0x4ff957c2c1848a3ade40077aa97a9c77a4a0f3a7cf1ddcf3830a589f70caa0b0",
      "transactionType": "CALL",
      "contractName": null,
      "contractAddress": "0x125d3f690f281659dd7708d21688bc83ee534ae6",
      "function": "mint(address,uint256)",
      "arguments": [
        "0x00000000000000000000000000000000006D184c",
        "1000000000000000000000"
      ],
      "transaction": {
        "from": "0xe416db11fb2568434e7a86f33762e37cacd48469",
        "to": "0x125d3f690f281659dd7708d21688bc83ee534ae6",
        "gas": "0x1121e",
        "value": "0x0",
        "input": "0x40c10f1900000000000000000000000000000000000000000000000000000000006d184c00000000000000000000000000000000000000000000003635c9adc5dea00000",
        "nonce": "0xf9",
        "chainId": "0x128"
      },
      "additionalContracts": [],
      "isFixedGasLimit": false
    }
  ],
  "receipts": [
    {
      "status": "0x1",
      "cumulativeGasUsed": "0x3b434c",
      "logs": [
        {
          "address": "0x125d3f690f281659dd7708d21688bc83ee534ae6",
          "topics": [
            "0xddf252ad1be2c89b69c2b068fc378daa952ba7f163c4a11628f55a4df523b3ef",
            "0x0000000000000000000000000000000000000000000000000000000000000000",
            "0x00000000000000000000000000000000000000000000000000000000006d184c"
          ],
          "data": "0x00000000000000000000000000000000000000000000003635c9adc5dea00000",
          "blockHash": "0x557df67bc6e723989af6dff174e25c8c9e03dfea338b1e8a49e1842fa93b360d",
          "blockNumber": "0x19914f0",
          "blockTimestamp": "0x6900e1a1",
          "transactionHash": "0x4ff957c2c1848a3ade40077aa97a9c77a4a0f3a7cf1ddcf3830a589f70caa0b0",
          "transactionIndex": "0x1e",
          "logIndex": "0x0",
          "removed": false
        }
      ],
      "logsBloom": "0x00000000000000000000000020000000000000000000000000000000000010000000000000000000000000000000000000000000000000000008000000000000000000000000000000000008000000000000000000800000000000000000000000000000020000000000000000000800000000000000000000000010000000000000000000000000000000000000000000000000000000000000000001000000000000000000000000000000000000000000000000000000000000000000000000000002000000000400000000000000000000000000000000000000000020000000000000000000000000000000000000000000000000000000000000000000",
      "type": "0x0",
      "transactionHash": "0x4ff957c2c1848a3ade40077aa97a9c77a4a0f3a7cf1ddcf3830a589f70caa0b0",
      "transactionIndex": "0x1e",
      "blockHash": "0x557df67bc6e723989af6dff174e25c8c9e03dfea338b1e8a49e1842fa93b360d",
      "blockNumber": "0x19914f0",
      "gasUsed": "0xc675",
      "effectiveGasPrice": "0x5d21dba000",
      "from": "0xe416db11fb2568434e7a86f33762e37cacd48469",
      "to": "0x125d3f690f281659dd7708d21688bc83ee534ae6",
      "contractAddress": "0x125d3f690f281659dd7708d21688bc83ee534ae6",
      "root": "0x56e81f171bcc55a6ff8345e692c0f86e5b48e01b996cadc001622fb5e363b421"
    }
  ],
  "libraries": [],
  "pending": [],
  "returns": {},
  "timestamp": 1761665445,
  "chain": 296,
  "commit": "efbc750"
}