{
  "transactions": [
    {
      "hash": "0xd9b89be77c8cb8564f8d158a5180828fefee109777a7a8bb1bbdd3e1daa0f58e",
      "transactionType": "CALL",
      "contractName": null,
      "contractAddress": "0xd4e61131ed9c3dd610727655ae8254b286dee95c",
      "function": "approve(address,uint256)",
      "arguments": [
        "0xE057622f9A2479f4990ffC11aeAd0De40DA7862A",
        "500000000000000000000000"
      ],
      "transaction": {
        "from": "0xe416db11fb2568434e7a86f33762e37cacd48469",
        "to": "0xd4e61131ed9c3dd610727655ae8254b286dee95c",
        "gas": "0xf816",
        "value": "0x0",
        "input": "0x095ea7b3000000000000000000000000e057622f9a2479f4990ffc11aead0de40da7862a0000000000000000000000000000000000000000000069e10de76676d0800000",
        "nonce": "0xfc",
        "chainId": "0x128"
      },
      "additionalContracts": [],
      "isFixedGasLimit": false
    },
    {
      "hash": "0x25a6b4b0dcf6e3875aa5c3ecbe64334b32d6bfbdf5626c1aeded746c3e4d1cc6",
      "transactionType": "CALL",
      "contractName": null,
      "contractAddress": "0xe057622f9a2479f4990ffc11aead0de40da7862a",
      "function": "createPool(address,string,uint256,uint256,uint256,uint256)",
      "arguments": [
        "0xd4E61131Ed9C3dd610727655aE8254B286deE95c",
        "USDT Staking Pool",
        "1800",
        "500000000000000000000000",
        "5000000000000000000",
        "100000000000000000000000"
      ],
      "transaction": {
        "from": "0xe416db11fb2568434e7a86f33762e37cacd48469",
        "to": "0xe057622f9a2479f4990ffc11aead0de40da7862a",
        "gas": "0x65a1c",
        "value": "0x0",
        "input": "0x176d8c3a000000000000000000000000d4e61131ed9c3dd610727655ae8254b286dee95c00000000000000000000000000000000000000000000000000000000000000c000000000000000000000000000000000000000000000000000000000000007080000000000000000000000000000000000000000000069e10de76676d08000000000000000000000000000000000000000000000000000004563918244f4000000000000000000000000000000000000000000000000152d02c7e14af6800000000000000000000000000000000000000000000000000000000000000000001155534454205374616b696e6720506f6f6c000000000000000000000000000000",
        "nonce": "0xfd",
        "chainId": "0x128"
      },
      "additionalContracts": [],
      "isFixedGasLimit": false
    }
  ],
  "receipts": [
    {
      "status": "0x1",
      "cumulativeGasUsed": "0x54ce4",
      "logs": [
        {
          "address": "0xd4e61131ed9c3dd610727655ae8254b286dee95c",
          "topics": [
            "0x8c5be1e5ebec7d5bd14f71427d1e84f3dd0314c0f7b2291e5b200ac8c7c3b925",
            "0x000000000000000000000000e416db11fb2568434e7a86f33762e37cacd48469",
            "0x000000000000000000000000e057622f9a2479f4990ffc11aead0de40da7862a"
          ],
          "data": "0x0000000000000000000000000000000000000000000069e10de76676d0800000",
          "blockHash": "0xcc72cfad6bb8ad102eff99a2beac2a1f67e47b1a7c65ee3e2f81dac8866e38bf",
          "blockNumber": "0x199289b",
          "blockTimestamp": "0x690108f6",
          "transactionHash": "0xd9b89be77c8cb8564f8d158a5180828fefee109777a7a8bb1bbdd3e1daa0f58e",
          "transactionIndex": "0x1",
          "logIndex": "0x0",
          "removed": false
        }
      ],
      "logsBloom": "0x00000000000000000000000000000004000000000000000000000000000000000000000000000000000000000200000000040000000000000000000000200000000000000000000000000000000000000000000000000000000000000000000000000000000000000008000000000000000000000000000000000000000000000000000000000000000000000000020000000000000000000000000000000000020000040000400000000000000000000000000000000000000000000000000000000000000000000000010000000000000000000000000000000000000000000010000000000000000000000002000000000000000000000000000000000000",
      "type": "0x0",
      "transactionHash": "0xd9b89be77c8cb8564f8d158a5180828fefee109777a7a8bb1bbdd3e1daa0f58e",
      "transactionIndex": "0x1",
      "blockHash": "0xcc72cfad6bb8ad102eff99a2beac2a1f67e47b1a7c65ee3e2f81dac8866e38bf",
      "blockNumber": "0x199289b",
      "gasUsed": "0xb39d",
      "effectiveGasPrice": "0x61c9f36800",
      "from": "0xe416db11fb2568434e7a86f33762e37cacd48469",
      "to": "0xd4e61131ed9c3dd610727655ae8254b286dee95c",
      "contractAddress": "0xd4e61131ed9c3dd610727655ae8254b286dee95c",
      "root": "0x56e81f171bcc55a6ff8345e692c0f86e5b48e01b996cadc001622fb5e363b421"
    },
    {
      "status": "0x1",
      "cumulativeGasUsed": "0x54ce4",
      "logs": [
        {
          "address": "0xd4e61131ed9c3dd610727655ae8254b286dee95c",
          "topics": [
            "0xddf252ad1be2c89b69c2b068fc378daa952ba7f163c4a11628f55a4df523b3ef",
            "0x000000000000000000000000e416db11fb2568434e7a86f33762e37cacd48469",
            "0x000000000000000000000000e057622f9a2479f4990ffc11aead0de40da7862a"
          ],
          "data": "0x0000000000000000000000000000000000000000000069e10de76676d0800000",
          "blockHash": "0xcc72cfad6bb8ad102eff99a2beac2a1f67e47b1a7c65ee3e2f81dac8866e38bf",
          "blockNumber": "0x199289b",
          "blockTimestamp": "0x690108f6",
          "transactionHash": "0x25a6b4b0dcf6e3875aa5c3ecbe64334b32d6bfbdf5626c1aeded746c3e4d1cc6",
          "transactionIndex": "0x3",
          "logIndex": "0x1",
          "removed": false
        },
        {
          "address": "0xe057622f9a2479f4990ffc11aead0de40da7862a",
          "topics": [
            "0x80eb862b1ebf91ef46e8085c1e47b348af9ad8f1248fb18302612a57ad3a2b55",
            "0x0000000000000000000000000000000000000000000000000000000000000003",
            "0x000000000000000000000000d4e61131ed9c3dd610727655ae8254b286dee95c"
          ],
          "data": "0x000000000000000000000000000000000000000000000000000000000000008000000000000000000000000000000000000000000000000000000000000007080000000000000000000000000000000000000000000069e10de76676d080000000000000000000000000000000000000000000000000000000000000690108f6000000000000000000000000000000000000000000000000000000000000001155534454205374616b696e6720506f6f6c000000000000000000000000000000",
          "blockHash": "0xcc72cfad6bb8ad102eff99a2beac2a1f67e47b1a7c65ee3e2f81dac8866e38bf",
          "blockNumber": "0x199289b",
          "blockTimestamp": "0x690108f6",
          "transactionHash": "0x25a6b4b0dcf6e3875aa5c3ecbe64334b32d6bfbdf5626c1aeded746c3e4d1cc6",
          "transactionIndex": "0x3",
          "logIndex": "0x2",
          "removed": false
        }
      ],
      "logsBloom": "0x00000000000000000000100000000004000000000008000000000000000000000000000000000000000000000200000000040000020000000000000000000000000000000000000000400008000000000000000000000000000000000000000080000000000000000008000000000000000000000000000080000010000000000000000000000000000000000000028000000000000000000000000000000000000000040000400000000000000000000000000000800000000000000000400000000002200000000000010000000000000000000000000000000000000000000000000000000000000000040002000200000000000000000000000000000000",
      "type": "0x0",
      "transactionHash": "0x25a6b4b0dcf6e3875aa5c3ecbe64334b32d6bfbdf5626c1aeded746c3e4d1cc6",
      "transactionIndex": "0x3",
      "blockHash": "0xcc72cfad6bb8ad102eff99a2beac2a1f67e47b1a7c65ee3e2f81dac8866e38bf",
      "blockNumber": "0x199289b",
      "gasUsed": "0x49947",
      "effectiveGasPrice": "0x61c9f36800",
      "from": "0xe416db11fb2568434e7a86f33762e37cacd48469",
      "to": "0xe057622f9a2479f4990ffc11aead0de40da7862a",
      "contractAddress": "0xe057622f9a2479f4990ffc11aead0de40da7862a",
      "root": "0x56e81f171bcc55a6ff8345e692c0f86e5b48e01b996cadc001622fb5e363b421"
    }
  ],
  "libraries": [],
  "pending": [],
  "returns": {},
  "timestamp": 1761675519,
  "chain": 296,
  "commit": "efbc750"
}