{
  "transactions": [
    {
      "hash": "0x964f9ac706b877a28d9cb011b47c0991fc7d5a1ce9c47b7399687c37128bcec3",
      "transactionType": "CALL",
      "contractName": null,
      "contractAddress": "0x3814f5cf6c4aa63eddf8a79c82346a163c7e7c53",
      "function": "approve(address,uint256)",
      "arguments": [
        "0xE057622f9A2479f4990ffC11aeAd0De40DA7862A",
        "500000000000000000000000"
      ],
      "transaction": {
        "from": "0xe416db11fb2568434e7a86f33762e37cacd48469",
        "to": "0x3814f5cf6c4aa63eddf8a79c82346a163c7e7c53",
        "gas": "0xf816",
        "value": "0x0",
        "input": "0x095ea7b3000000000000000000000000e057622f9a2479f4990ffc11aead0de40da7862a0000000000000000000000000000000000000000000069e10de76676d0800000",
        "nonce": "0xfe",
        "chainId": "0x128"
      },
      "additionalContracts": [],
      "isFixedGasLimit": false
    },
    {
      "hash": "0x16c96195b0026d16fc7f2c96e4b627eca129849098a1a982ca7a7c2869010395",
      "transactionType": "CALL",
      "contractName": null,
      "contractAddress": "0xe057622f9a2479f4990ffc11aead0de40da7862a",
      "function": "createPool(address,string,uint256,uint256,uint256,uint256)",
      "arguments": [
        "0x3814F5Cf6c4Aa63EdDF8A79c82346a163c7E7C53",
        "DAI Staking Pool",
        "1500",
        "500000000000000000000000",
        "5000000000000000000",
        "100000000000000000000000"
      ],
      "transaction": {
        "from": "0xe416db11fb2568434e7a86f33762e37cacd48469",
        "to": "0xe057622f9a2479f4990ffc11aead0de40da7862a",
        "gas": "0x6b9b2",
        "value": "0x0",
        "input": "0x176d8c3a0000000000000000000000003814f5cf6c4aa63eddf8a79c82346a163c7e7c5300000000000000000000000000000000000000000000000000000000000000c000000000000000000000000000000000000000000000000000000000000005dc0000000000000000000000000000000000000000000069e10de76676d08000000000000000000000000000000000000000000000000000004563918244f4000000000000000000000000000000000000000000000000152d02c7e14af68000000000000000000000000000000000000000000000000000000000000000000010444149205374616b696e6720506f6f6c00000000000000000000000000000000",
        "nonce": "0xff",
        "chainId": "0x128"
      },
      "additionalContracts": [],
      "isFixedGasLimit": false
    }
  ],
  "receipts": [
    {
      "status": "0x1",
      "cumulativeGasUsed": "0xb39d",
      "logs": [
        {
          "address": "0x3814f5cf6c4aa63eddf8a79c82346a163c7e7c53",
          "topics": [
            "0x8c5be1e5ebec7d5bd14f71427d1e84f3dd0314c0f7b2291e5b200ac8c7c3b925",
            "0x000000000000000000000000e416db11fb2568434e7a86f33762e37cacd48469",
            "0x000000000000000000000000e057622f9a2479f4990ffc11aead0de40da7862a"
          ],
          "data": "0x0000000000000000000000000000000000000000000069e10de76676d0800000",
          "blockHash": "0x431f2946efd9e628f7590180040cb3635975dd494575d1b2655a39d44e998dde",
          "blockNumber": "0x1992914",
          "blockTimestamp": "0x690109e9",
          "transactionHash": "0x964f9ac706b877a28d9cb011b47c0991fc7d5a1ce9c47b7399687c37128bcec3",
          "transactionIndex": "0xf",
          "logIndex": "0x0",
          "removed": false
        }
      ],
      "logsBloom": "0x00000000000000000000000000000004000000000000020000000000000000000000000000000000000000000200000000000000000000000000000000200000000000000000000000000000000000000000000000000000000000000000000000000000000000000000000000020000000000000000000000000000000000000000000000000000000000000000020000000000000000000000000400000000020000040000400000000000000000000000000000000000000000000000000000000000000000000000000000000000000000000000000000000000000000000010000000000000000000000002000000000000000000000000000000000000",
      "type": "0x0",
      "transactionHash": "0x964f9ac706b877a28d9cb011b47c0991fc7d5a1ce9c47b7399687c37128bcec3",
      "transactionIndex": "0xf",
      "blockHash": "0x431f2946efd9e628f7590180040cb3635975dd494575d1b2655a39d44e998dde",
      "blockNumber": "0x1992914",
      "gasUsed": "0xb39d",
      "effectiveGasPrice": "0x61c9f36800",
      "from": "0xe416db11fb2568434e7a86f33762e37cacd48469",
      "to": "0x3814f5cf6c4aa63eddf8a79c82346a163c7e7c53",
      "contractAddress": "0x3814f5cf6c4aa63eddf8a79c82346a163c7e7c53",
      "root": "0x56e81f171bcc55a6ff8345e692c0f86e5b48e01b996cadc001622fb5e363b421"
    }
  ],
  "libraries": [],
  "pending": [],
  "returns": {},
  "timestamp": 1761675874,
  "chain": 296,
  "commit": "efbc750"
}