{
  "transactions": [
    {
      "hash": "0x0fafe4f22884be97432b4fa8dda7e52ce0a74065aa3bcb8fedc73bbeb205aa73",
      "transactionType": "CALL",
      "contractName": null,
      "contractAddress": "0x3814f5cf6c4aa63eddf8a79c82346a163c7e7c53",
      "function": "approve(address,uint256)",
      "arguments": [
        "0xE057622f9A2479f4990ffC11aeAd0De40DA7862A",
        "500000000000000000000000"
      ],
      "transaction": {
        "from": "0xe416db11fb2568434e7a86f33762e37cacd48469",
        "to": "0x3814f5cf6c4aa63eddf8a79c82346a163c7e7c53",
        "gas": "0x94ff",
        "value": "0x0",
        "input": "0x095ea7b3000000000000000000000000e057622f9a2479f4990ffc11aead0de40da7862a0000000000000000000000000000000000000000000069e10de76676d0800000",
        "nonce": "0xff",
        "chainId": "0x128"
      },
      "additionalContracts": [],
      "isFixedGasLimit": false
    },
    {
      "hash": "0x6b37ab81ad571bce88d91446386df5b96c8f0c01273570a0e7a7fd38cf525a66",
      "transactionType": "CALL",
      "contractName": null,
      "contractAddress": "0xe057622f9a2479f4990ffc11aead0de40da7862a",
      "function": "createPool(address,string,uint256,uint256,uint256,uint256)",
      "arguments": [
        "0x3814F5Cf6c4Aa63EdDF8A79c82346a163c7E7C53",
        "DAI Staking Pool",
        "1900",
        "500000000000000000000000",
        "5000000000000000000",
        "100000000000000000000000"
      ],
      "transaction": {
        "from": "0xe416db11fb2568434e7a86f33762e37cacd48469",
        "to": "0xe057622f9a2479f4990ffc11aead0de40da7862a",
        "gas": "0x6b9b2",
        "value": "0x0",
        "input": "0x176d8c3a0000000000000000000000003814f5cf6c4aa63eddf8a79c82346a163c7e7c5300000000000000000000000000000000000000000000000000000000000000c0000000000000000000000000000000000000000000000000000000000000076c0000000000000000000000000000000000000000000069e10de76676d08000000000000000000000000000000000000000000000000000004563918244f4000000000000000000000000000000000000000000000000152d02c7e14af68000000000000000000000000000000000000000000000000000000000000000000010444149205374616b696e6720506f6f6c00000000000000000000000000000000",
        "nonce": "0x100",
        "chainId": "0x128"
      },
      "additionalContracts": [],
      "isFixedGasLimit": false
    }
  ],
  "receipts": [
    {
      "status": "0x1",
      "cumulativeGasUsed": "0x4ff1c",
      "logs": [
        {
          "address": "0x3814f5cf6c4aa63eddf8a79c82346a163c7e7c53",
          "topics": [
            "0x8c5be1e5ebec7d5bd14f71427d1e84f3dd0314c0f7b2291e5b200ac8c7c3b925",
            "0x000000000000000000000000e416db11fb2568434e7a86f33762e37cacd48469",
            "0x000000000000000000000000e057622f9a2479f4990ffc11aead0de40da7862a"
          ],
          "data": "0x0000000000000000000000000000000000000000000069e10de76676d0800000",
          "blockHash": "0x13bc1c855d279cf7e18d31475aa124b5b0bd7589ed238c4a015823e70a487607",
          "blockNumber": "0x1992978",
          "blockTimestamp": "0x69010ab1",
          "transactionHash": "0x0fafe4f22884be97432b4fa8dda7e52ce0a74065aa3bcb8fedc73bbeb205aa73",
          "transactionIndex": "0x7",
          "logIndex": "0x0",
          "removed": false
        }
      ],
      "logsBloom": "0x00000000000000000000000000000004000000000000020000000000000000000000000000000000000000000200000000000000000000000000000000200000000000000000000000000000000000000000000000000000000000000000000000000000000000000000000000020000000000000000000000000000000000000000000000000000000000000000020000000000000000000000000400000000020000040000400000000000000000000000000000000000000000000000000000000000000000000000000000000000000000000000000000000000000000000010000000000000000000000002000000000000000000000000000000000000",
      "type": "0x0",
      "transactionHash": "0x0fafe4f22884be97432b4fa8dda7e52ce0a74065aa3bcb8fedc73bbeb205aa73",
      "transactionIndex": "0x7",
      "blockHash": "0x13bc1c855d279cf7e18d31475aa124b5b0bd7589ed238c4a015823e70a487607",
      "blockNumber": "0x1992978",
      "gasUsed": "0x65e1",
      "effectiveGasPrice": "0x61c9f36800",
      "from": "0xe416db11fb2568434e7a86f33762e37cacd48469",
      "to": "0x3814f5cf6c4aa63eddf8a79c82346a163c7e7c53",
      "contractAddress": "0x3814f5cf6c4aa63eddf8a79c82346a163c7e7c53",
      "root": "0x56e81f171bcc55a6ff8345e692c0f86e5b48e01b996cadc001622fb5e363b421"
    },
    {
      "status": "0x1",
      "cumulativeGasUsed": "0x4ff1c",
      "logs": [
        {
          "address": "0x3814f5cf6c4aa63eddf8a79c82346a163c7e7c53",
          "topics": [
            "0xddf252ad1be2c89b69c2b068fc378daa952ba7f163c4a11628f55a4df523b3ef",
            "0x000000000000000000000000e416db11fb2568434e7a86f33762e37cacd48469",
            "0x000000000000000000000000e057622f9a2479f4990ffc11aead0de40da7862a"
          ],
          "data": "0x0000000000000000000000000000000000000000000069e10de76676d0800000",
          "blockHash": "0x13bc1c855d279cf7e18d31475aa124b5b0bd7589ed238c4a015823e70a487607",
          "blockNumber": "0x1992978",
          "blockTimestamp": "0x69010ab1",
          "transactionHash": "0x6b37ab81ad571bce88d91446386df5b96c8f0c01273570a0e7a7fd38cf525a66",
          "transactionIndex": "0x9",
          "logIndex": "0x1",
          "removed": false
        },
        {
          "address": "0xe057622f9a2479f4990ffc11aead0de40da7862a",
          "topics": [
            "0x80eb862b1ebf91ef46e8085c1e47b348af9ad8f1248fb18302612a57ad3a2b55",
            "0x0000000000000000000000000000000000000000000000000000000000000004",
            "0x0000000000000000000000003814f5cf6c4aa63eddf8a79c82346a163c7e7c53"
          ],
          "data": "0x0000000000000000000000000000000000000000000000000000000000000080000000000000000000000000000000000000000000000000000000000000076c0000000000000000000000000000000000000000000069e10de76676d08000000000000000000000000000000000000000000000000000000000000069010ab10000000000000000000000000000000000000000000000000000000000000010444149205374616b696e6720506f6f6c00000000000000000000000000000000",
          "blockHash": "0x13bc1c855d279cf7e18d31475aa124b5b0bd7589ed238c4a015823e70a487607",
          "blockNumber": "0x1992978",
          "blockTimestamp": "0x69010ab1",
          "transactionHash": "0x6b37ab81ad571bce88d91446386df5b96c8f0c01273570a0e7a7fd38cf525a66",
          "transactionIndex": "0x9",
          "logIndex": "0x2",
          "removed": false
        }
      ],
      "logsBloom": "0x00000000000000000002100000000004000000000008021000000000000000000000000000000000000000000200000000000000000000000000000000000000000000000000000000000008000000000000000000000000000000000000020088000000000000000000000000020000000000000000000000000010000000000000000000000000000000000000028000000000000000000000000400000000000000040000400000000000000000000000000000000000002000000000000000000002000000000000000000000000000000008000000000000000000000000000000000000000000000040002000200000000000000000000000000000000",
      "type": "0x0",
      "transactionHash": "0x6b37ab81ad571bce88d91446386df5b96c8f0c01273570a0e7a7fd38cf525a66",
      "transactionIndex": "0x9",
      "blockHash": "0x13bc1c855d279cf7e18d31475aa124b5b0bd7589ed238c4a015823e70a487607",
      "blockNumber": "0x1992978",
      "gasUsed": "0x4993b",
      "effectiveGasPrice": "0x61c9f36800",
      "from": "0xe416db11fb2568434e7a86f33762e37cacd48469",
      "to": "0xe057622f9a2479f4990ffc11aead0de40da7862a",
      "contractAddress": "0xe057622f9a2479f4990ffc11aead0de40da7862a",
      "root": "0x56e81f171bcc55a6ff8345e692c0f86e5b48e01b996cadc001622fb5e363b421"
    }
  ],
  "libraries": [],
  "pending": [],
  "returns": {},
  "timestamp": 1761675956,
  "chain": 296,
  "commit": "efbc750"
}