{
  "transactions": [
    {
      "hash": "0x2119850337a688743551f6fd6bd11b89a43f45091de7a5cf63ad59243dae4c20",
      "transactionType": "CALL",
      "contractName": null,
      "contractAddress": "0x125d3f690f281659dd7708d21688bc83ee534ae6",
      "function": "approve(address,uint256)",
      "arguments": [
        "0xE057622f9A2479f4990ffC11aeAd0De40DA7862A",
        "500000000000000000000000"
      ],
      "transaction": {
        "from": "0xe416db11fb2568434e7a86f33762e37cacd48469",
        "to": "0x125d3f690f281659dd7708d21688bc83ee534ae6",
        "gas": "0xf816",
        "value": "0x0",
        "input": "0x095ea7b3000000000000000000000000e057622f9a2479f4990ffc11aead0de40da7862a0000000000000000000000000000000000000000000069e10de76676d0800000",
        "nonce": "0xfa",
        "chainId": "0x128"
      },
      "additionalContracts": [],
      "isFixedGasLimit": false
    },
    {
      "hash": "0xf078fa8b72d3f087fd7e9dfb7252b615f0ebf12f741b793da3b27026142632cc",
      "transactionType": "CALL",
      "contractName": null,
      "contractAddress": "0xe057622f9a2479f4990ffc11aead0de40da7862a",
      "function": "createPool(address,string,uint256,uint256,uint256,uint256)",
      "arguments": [
        "0x125D3f690f281659Dd7708D21688BC83Ee534aE6",
        "USDC Staking Pool",
        "1200",
        "500000000000000000000000",
        "5000000000000000000",
        "100000000000000000000000"
      ],
      "transaction": {
        "from": "0xe416db11fb2568434e7a86f33762e37cacd48469",
        "to": "0xe057622f9a2479f4990ffc11aead0de40da7862a",
        "gas": "0x65a1c",
        "value": "0x0",
        "input": "0x176d8c3a000000000000000000000000125d3f690f281659dd7708d21688bc83ee534ae600000000000000000000000000000000000000000000000000000000000000c000000000000000000000000000000000000000000000000000000000000004b00000000000000000000000000000000000000000000069e10de76676d08000000000000000000000000000000000000000000000000000004563918244f4000000000000000000000000000000000000000000000000152d02c7e14af6800000000000000000000000000000000000000000000000000000000000000000001155534443205374616b696e6720506f6f6c000000000000000000000000000000",
        "nonce": "0xfb",
        "chainId": "0x128"
      },
      "additionalContracts": [],
      "isFixedGasLimit": false
    }
  ],
  "receipts": [
    {
      "status": "0x1",
      "cumulativeGasUsed": "0x54ce4",
      "logs": [
        {
          "address": "0x125d3f690f281659dd7708d21688bc83ee534ae6",
          "topics": [
            "0x8c5be1e5ebec7d5bd14f71427d1e84f3dd0314c0f7b2291e5b200ac8c7c3b925",
            "0x000000000000000000000000e416db11fb2568434e7a86f33762e37cacd48469",
            "0x000000000000000000000000e057622f9a2479f4990ffc11aead0de40da7862a"
          ],
          "data": "0x0000000000000000000000000000000000000000000069e10de76676d0800000",
          "blockHash": "0x23a68a1a6bd55431a5e17f3e6d5d297488175d717c164f9dfa59bed8f5b870c9",
          "blockNumber": "0x1992820",
          "blockTimestamp": "0x69010801",
          "transactionHash": "0x2119850337a688743551f6fd6bd11b89a43f45091de7a5cf63ad59243dae4c20",
          "transactionIndex": "0x11",
          "logIndex": "0x1",
          "removed": false
        }
      ],
      "logsBloom": "0x00000000000000000000000000000004000000000000000000000000000010000000000000000000000000000200000000000000000000000000000000200000000000000000000000000000000000000000000000800000000000000000000000000000000000000000000000000000000000000000000000000000000000000000000000000000000000000000020000000000000000000000000001000000020000040000400000000000000000000000000000000000000000000000000000000000000000000000000000000000000000000000000000000000000000000010000000000000000000000002000000000000000000000000000000000000",
      "type": "0x0",
      "transactionHash": "0x2119850337a688743551f6fd6bd11b89a43f45091de7a5cf63ad59243dae4c20",
      "transactionIndex": "0x11",
      "blockHash": "0x23a68a1a6bd55431a5e17f3e6d5d297488175d717c164f9dfa59bed8f5b870c9",
      "blockNumber": "0x1992820",
      "gasUsed": "0xb39d",
      "effectiveGasPrice": "0x61c9f36800",
      "from": "0xe416db11fb2568434e7a86f33762e37cacd48469",
      "to": "0x125d3f690f281659dd7708d21688bc83ee534ae6",
      "contractAddress": "0x125d3f690f281659dd7708d21688bc83ee534ae6",
      "root": "0x56e81f171bcc55a6ff8345e692c0f86e5b48e01b996cadc001622fb5e363b421"
    },
    {
      "status": "0x1",
      "cumulativeGasUsed": "0x54ce4",
      "logs": [
        {
          "address": "0x125d3f690f281659dd7708d21688bc83ee534ae6",
          "topics": [
            "0xddf252ad1be2c89b69c2b068fc378daa952ba7f163c4a11628f55a4df523b3ef",
            "0x000000000000000000000000e416db11fb2568434e7a86f33762e37cacd48469",
            "0x000000000000000000000000e057622f9a2479f4990ffc11aead0de40da7862a"
          ],
          "data": "0x0000000000000000000000000000000000000000000069e10de76676d0800000",
          "blockHash": "0x23a68a1a6bd55431a5e17f3e6d5d297488175d717c164f9dfa59bed8f5b870c9",
          "blockNumber": "0x1992820",
          "blockTimestamp": "0x69010801",
          "transactionHash": "0xf078fa8b72d3f087fd7e9dfb7252b615f0ebf12f741b793da3b27026142632cc",
          "transactionIndex": "0x12",
          "logIndex": "0x2",
          "removed": false
        },
        {
          "address": "0xe057622f9a2479f4990ffc11aead0de40da7862a",
          "topics": [
            "0x80eb862b1ebf91ef46e8085c1e47b348af9ad8f1248fb18302612a57ad3a2b55",
            "0x0000000000000000000000000000000000000000000000000000000000000002",
            "0x000000000000000000000000125d3f690f281659dd7708d21688bc83ee534ae6"
          ],
          "data": "0x000000000000000000000000000000000000000000000000000000000000008000000000000000000000000000000000000000000000000000000000000004b00000000000000000000000000000000000000000000069e10de76676d08000000000000000000000000000000000000000000000000000000000000069010800000000000000000000000000000000000000000000000000000000000000001155534443205374616b696e6720506f6f6c000000000000000000000000000000",
          "blockHash": "0x23a68a1a6bd55431a5e17f3e6d5d297488175d717c164f9dfa59bed8f5b870c9",
          "blockNumber": "0x1992820",
          "blockTimestamp": "0x69010801",
          "transactionHash": "0xf078fa8b72d3f087fd7e9dfb7252b615f0ebf12f741b793da3b27026142632cc",
          "transactionIndex": "0x12",
          "logIndex": "0x3",
          "removed": false
        }
      ],
      "logsBloom": "0x04000000000000000200100000000004000000000008000000000000000010000000000000000000000000000200000000000000000000000000000000000000000000000000000000000008000000000000000000800000000000000000000080000004000000000000000000000000000000000000000000000010000000000000000001000000000000000000028000000000000000000000000001000000000000040000400000000100000000000000000000000000000000000000000000000002000000000000000000000000000000000000000000000000000000000000000000000000000000040002000200000000008000000000000000000000",
      "type": "0x0",
      "transactionHash": "0xf078fa8b72d3f087fd7e9dfb7252b615f0ebf12f741b793da3b27026142632cc",
      "transactionIndex": "0x12",
      "blockHash": "0x23a68a1a6bd55431a5e17f3e6d5d297488175d717c164f9dfa59bed8f5b870c9",
      "blockNumber": "0x1992820",
      "gasUsed": "0x49947",
      "effectiveGasPrice": "0x61c9f36800",
      "from": "0xe416db11fb2568434e7a86f33762e37cacd48469",
      "to": "0xe057622f9a2479f4990ffc11aead0de40da7862a",
      "contractAddress": "0xe057622f9a2479f4990ffc11aead0de40da7862a",
      "root": "0x56e81f171bcc55a6ff8345e692c0f86e5b48e01b996cadc001622fb5e363b421"
    }
  ],
  "libraries": [],
  "pending": [],
  "returns": {},
  "timestamp": 1761675269,
  "chain": 296,
  "commit": "efbc750"
}